:1000000002EF00F05CEF0AF0FF00FF00FF00FF00CE
:101000000000010E2E6E2750D8B409EF08F00BEF48
:1010100008F01BEF08F02750D96EDA6ADF30E832AB
:10102000E832070B296E070E296419EF08F01BEF51
:1010300008F072EF08F0000E2E6E87EF08F02750D0
:10104000D96EDA6ADF30E832E832070B296E010E1A
:101050002A6E292A2EEF08F0D8902A36292E2CEF56
:1010600008F02A50FF0A2B6E2750D96EDA6ADF503B
:10107000070B020DF3500B0FD96EDA6ADECF2CF09E
:10108000DDCF2DF02CC0D9FF2DC0DAFF2B50DF169D
:1010900087EF08F02750D96EDA6ADF30E832E8329D
:1010A000070B296E010E2A6E292A59EF08F0D890F5
:1010B0002A36292E57EF08F02750D96EDA6ADF500A
:1010C000070B020DF3500B0FD96EDA6ADECF2BF04F
:1010D000DDCF2CF02BC0D9FF2CC0DAFF2A50DF1255
:1010E00087EF08F02850296E2A6A2A50000AD8B4DF
:1010F0007CEF08F01BEF08F02950000AD8B41FEF6E
:1011000008F0010AD8B44AEF08F01BEF08F02E509F
:1011100012002750D8B48FEF08F091EF08F0A1EF3C
:1011200008F02750D96EDA6ADF30E832E832070B70
:10113000286E070E28649FEF08F0A1EF08F0F6EF85
:1011400008F00CEF09F02750D96EDA6ADF30E83288
:10115000E832070B286E010E296E282AB2EF08F03C
:10116000D8902936282EB0EF08F02950FF0A2A6EB1
:101170002750D96EDA6ADF50070B020DF350150FB6
:10118000D96EDA6ADECF2BF0DDCF2CF02BC0D9FF81
:101190002CC0DAFF2A50DF160CEF09F02750D96E69
:1011A000DA6ADF30E832E832070B286E010E296E6A
:1011B000282ADDEF08F0D8902936282EDBEF08F03A
:1011C0002750D96EDA6ADF50070B020DF350150F66
:1011D000D96EDA6ADECF2AF0DDCF2BF02AC0D9FF34
:1011E0002BC0DAFF2950DF120CEF09F02750D96E1F
:1011F000DA6ADFBCFEEF08F001EF09F0010E02EF42
:1012000009F0000E000AD8B4A3EF08F0010AD8B420
:10121000CEEF08F0A1EF08F012003BEC0AF0260E2A
:101220002F6EA2EC09F0250E2F6EA2EC09F0240E11
:101230002F6EA2EC09F0230E2F6EA2EC09F0220E05
:101240002F6EA2EC09F0210E2F6EA2EC09F0200EF9
:101250002F6EA2EC09F01F0E2F6EA2EC09F0020E09
:10126000376E040E366EBA0EE82EFED7362EFCD739
:10127000372EFAD700D0260E2F6ED7EC09F0250EA8
:101280002F6ED7EC09F0240E2F6ED7EC09F0230E49
:101290002F6ED7EC09F0220E2F6ED7EC09F0210E3D
:1012A0002F6ED7EC09F0200E2F6ED7EC09F01F0E31
:1012B0002F6ED7EC09F0020E376E040E366EBA0EA2
:1012C000E82EFED7362EFCD7372EFAD700D00FEFF8
:1012D00009F002EF00F03250D8A471EF09F073EF7B
:1012E00009F077EF09F0000E346EA0EF09F03BC073
:1012F00035F03250D96EDA6ADF500F0B336E35504D
:101300003318F80B3318356E3250D96EDA6ADF387D
:10131000070B336E33463346334635503318C70B0D
:101320003318356E359C3250D96EDA6ADFAE02D092
:10133000358E01D0359E350E2F6E0CEC0AF0346ED2
:10134000345012002F50D8A4A8EF09F0AAEF09F0EA
:10135000ACEF09F0D6EF09F03AC031F02F50D96E5A
:10136000DA6ADF500F0B306E31503018F80B30183E
:10137000316E2F50D96EDA6ADF38070B306E304687
:101380003046304631503018C70B3018316E319C22
:101390002F50D96EDA6ADFAE02D0318E01D0319E85
:1013A000310E276E010E286E01EC08F012002F504E
:1013B000D8A4DDEF09F0DFEF09F0E1EF09F00BEF62
:1013C0000AF039C031F02F50D96EDA6ADF500F0BB6
:1013D000306E31503018F80B3018316E2F50D96EF6
:1013E000DA6ADF38070B306E30463046304631500F
:1013F0003018C70B3018316E319C2F50D96EDA6A15
:10140000DFAE02D0318E01D0319E310E276E000E3C
:10141000286E01EC08F01200010E316E2F50D8B486
:1014200014EF0AF016EF0AF026EF0AF02F50D96EEB
:10143000DA6ADF30E832E832070B306E070E3064CC
:1014400024EF0AF026EF0AF02AEF0AF0000E316EC0
:1014500039EF0AF02FC027F089EC08F02FC027F0F1
:101460002F50D96EDA6A000EDFBE010E286E01EC35
:1014700008F031501200260E326E6BEC09F0250E8A
:10148000326E6BEC09F0240E326E6BEC09F0230E19
:10149000326E6BEC09F0220E326E6BEC09F0210E0D
:1014A000326E6BEC09F0200E326E6BEC09F01F0E01
:1014B000326E6BEC09F01200EA0EF66E140EF76E47
:1014C000000EF86E00EE01F010EE26F00900F5CFE8
:1014D000EEFFE550E150FAE13B6A3A6A396A386A50
:1014E000000EF86E00010DEF09F0800F810F820FE2
:1014F000830F840F890F8A0F8B0F8C0F8D0F920F24
:10150000930F940F950F960F72625242322212027D
:020000040030CA
:0E000000FF02091EFF8181FF0FC00FE00F40BD
:00000001FF
